{
  "contractName": "MarketPlace",
  "abi": [
    {
      "constant": true,
      "inputs": [
        {
          "name": "",
          "type": "address"
        }
      ],
      "name": "marketPlaceStoreOwners",
      "outputs": [
        {
          "name": "",
          "type": "bool"
        }
      ],
      "payable": false,
      "stateMutability": "view",
      "type": "function"
    },
    {
      "constant": true,
      "inputs": [],
      "name": "numberOfMarketPlaceStores",
      "outputs": [
        {
          "name": "",
          "type": "uint256"
        }
      ],
      "payable": false,
      "stateMutability": "view",
      "type": "function"
    },
    {
      "constant": true,
      "inputs": [],
      "name": "owner",
      "outputs": [
        {
          "name": "",
          "type": "address"
        }
      ],
      "payable": false,
      "stateMutability": "view",
      "type": "function"
    },
    {
      "constant": true,
      "inputs": [
        {
          "name": "",
          "type": "address"
        }
      ],
      "name": "marketPlaceAdministrators",
      "outputs": [
        {
          "name": "",
          "type": "bool"
        }
      ],
      "payable": false,
      "stateMutability": "view",
      "type": "function"
    },
    {
      "constant": true,
      "inputs": [
        {
          "name": "",
          "type": "uint256"
        }
      ],
      "name": "marketPlaceStores",
      "outputs": [
        {
          "name": "name",
          "type": "string"
        },
        {
          "name": "owner",
          "type": "address"
        },
        {
          "name": "balance",
          "type": "uint256"
        },
        {
          "name": "numberOfItems",
          "type": "uint256"
        }
      ],
      "payable": false,
      "stateMutability": "view",
      "type": "function"
    },
    {
      "constant": true,
      "inputs": [],
      "name": "isCloseMarketPlace",
      "outputs": [
        {
          "name": "",
          "type": "bool"
        }
      ],
      "payable": false,
      "stateMutability": "view",
      "type": "function"
    },
    {
      "inputs": [],
      "payable": false,
      "stateMutability": "nonpayable",
      "type": "constructor"
    },
    {
      "anonymous": false,
      "inputs": [],
      "name": "MarketPlaceClosed",
      "type": "event"
    },
    {
      "anonymous": false,
      "inputs": [],
      "name": "MarketPlaceOpened",
      "type": "event"
    },
    {
      "anonymous": false,
      "inputs": [
        {
          "indexed": true,
          "name": "marketPlaceAdministrator",
          "type": "address"
        }
      ],
      "name": "MarketPlaceAdministratorAdded",
      "type": "event"
    },
    {
      "anonymous": false,
      "inputs": [
        {
          "indexed": true,
          "name": "marketPlaceAdministrator",
          "type": "address"
        }
      ],
      "name": "MarketPlaceAdministratorDeleted",
      "type": "event"
    },
    {
      "anonymous": false,
      "inputs": [
        {
          "indexed": true,
          "name": "marketPlaceStoreOwner",
          "type": "address"
        }
      ],
      "name": "MarketPlaceStoreOwnerAdded",
      "type": "event"
    },
    {
      "anonymous": false,
      "inputs": [
        {
          "indexed": true,
          "name": "marketPlaceStoreOwner",
          "type": "address"
        }
      ],
      "name": "MarketPlaceStoreOwnerDeleted",
      "type": "event"
    },
    {
      "anonymous": false,
      "inputs": [
        {
          "indexed": true,
          "name": "marketPlaceStoreID",
          "type": "uint256"
        },
        {
          "indexed": true,
          "name": "owner",
          "type": "address"
        },
        {
          "indexed": false,
          "name": "marketPlaceStoreName",
          "type": "string"
        }
      ],
      "name": "MarketPlaceStoreCreated",
      "type": "event"
    },
    {
      "anonymous": false,
      "inputs": [
        {
          "indexed": true,
          "name": "marketPlaceStoreID",
          "type": "uint256"
        }
      ],
      "name": "MarketPlaceStoreDeleted",
      "type": "event"
    },
    {
      "anonymous": false,
      "inputs": [
        {
          "indexed": true,
          "name": "marketPlaceStoreID",
          "type": "uint256"
        },
        {
          "indexed": false,
          "name": "marketPlaceStoreName",
          "type": "string"
        }
      ],
      "name": "MarketPlaceStoreNameModified",
      "type": "event"
    },
    {
      "anonymous": false,
      "inputs": [
        {
          "indexed": true,
          "name": "marketPlaceStoreID",
          "type": "uint256"
        },
        {
          "indexed": true,
          "name": "itemID",
          "type": "uint256"
        },
        {
          "indexed": false,
          "name": "name",
          "type": "string"
        },
        {
          "indexed": false,
          "name": "des",
          "type": "string"
        },
        {
          "indexed": false,
          "name": "price",
          "type": "uint256"
        },
        {
          "indexed": false,
          "name": "stock",
          "type": "uint256"
        }
      ],
      "name": "MarketPlaceStoreItemAdded",
      "type": "event"
    },
    {
      "anonymous": false,
      "inputs": [
        {
          "indexed": true,
          "name": "marketPlaceStoreID",
          "type": "uint256"
        },
        {
          "indexed": true,
          "name": "itemID",
          "type": "uint256"
        }
      ],
      "name": "MarketPlaceStoreItemDeleted",
      "type": "event"
    },
    {
      "anonymous": false,
      "inputs": [
        {
          "indexed": true,
          "name": "marketPlaceStoreID",
          "type": "uint256"
        },
        {
          "indexed": true,
          "name": "marketPlaceStoreItemID",
          "type": "uint256"
        },
        {
          "indexed": false,
          "name": "name",
          "type": "string"
        }
      ],
      "name": "MarketPlaceStoreItemNameModified",
      "type": "event"
    },
    {
      "anonymous": false,
      "inputs": [
        {
          "indexed": true,
          "name": "marketPlaceStoreID",
          "type": "uint256"
        },
        {
          "indexed": true,
          "name": "itemID",
          "type": "uint256"
        },
        {
          "indexed": false,
          "name": "description",
          "type": "string"
        }
      ],
      "name": "MarketPlaceStoreItemDescriptionModified",
      "type": "event"
    },
    {
      "anonymous": false,
      "inputs": [
        {
          "indexed": true,
          "name": "marketPlaceStoreID",
          "type": "uint256"
        },
        {
          "indexed": true,
          "name": "itemID",
          "type": "uint256"
        },
        {
          "indexed": false,
          "name": "salePrice",
          "type": "uint256"
        }
      ],
      "name": "MarketPlaceStoreItemSalePriceModified",
      "type": "event"
    },
    {
      "anonymous": false,
      "inputs": [
        {
          "indexed": true,
          "name": "marketPlaceStoreID",
          "type": "uint256"
        },
        {
          "indexed": true,
          "name": "itemID",
          "type": "uint256"
        },
        {
          "indexed": false,
          "name": "stock",
          "type": "uint256"
        }
      ],
      "name": "MarketPlaceStoreItemStockModified",
      "type": "event"
    },
    {
      "anonymous": false,
      "inputs": [
        {
          "indexed": true,
          "name": "marketPlaceStoreID",
          "type": "uint256"
        },
        {
          "indexed": true,
          "name": "owner",
          "type": "address"
        },
        {
          "indexed": false,
          "name": "amount",
          "type": "uint256"
        }
      ],
      "name": "MarketPlaceStoreFundsWithdrawn",
      "type": "event"
    },
    {
      "anonymous": false,
      "inputs": [
        {
          "indexed": true,
          "name": "marketPlaceStoreID",
          "type": "uint256"
        },
        {
          "indexed": true,
          "name": "marketPlaceStoreItemID",
          "type": "uint256"
        },
        {
          "indexed": false,
          "name": "amount",
          "type": "uint256"
        },
        {
          "indexed": false,
          "name": "expense",
          "type": "uint256"
        }
      ],
      "name": "MarketPlaceStoreItemSold",
      "type": "event"
    },
    {
      "constant": false,
      "inputs": [],
      "name": "closeMarketPlace",
      "outputs": [],
      "payable": false,
      "stateMutability": "nonpayable",
      "type": "function"
    },
    {
      "constant": false,
      "inputs": [],
      "name": "openMarketPlace",
      "outputs": [],
      "payable": false,
      "stateMutability": "nonpayable",
      "type": "function"
    },
    {
      "constant": false,
      "inputs": [
        {
          "name": "marketPlaceAdministrator",
          "type": "address"
        }
      ],
      "name": "addMarketPlaceAdministrator",
      "outputs": [],
      "payable": false,
      "stateMutability": "nonpayable",
      "type": "function"
    },
    {
      "constant": false,
      "inputs": [
        {
          "name": "marketPlaceAdministrator",
          "type": "address"
        }
      ],
      "name": "deleteMarketPlaceAdministrator",
      "outputs": [],
      "payable": false,
      "stateMutability": "nonpayable",
      "type": "function"
    },
    {
      "constant": false,
      "inputs": [
        {
          "name": "marketPlaceStoreOwner",
          "type": "address"
        }
      ],
      "name": "addMarketPlaceStoreOwner",
      "outputs": [],
      "payable": false,
      "stateMutability": "nonpayable",
      "type": "function"
    },
    {
      "constant": false,
      "inputs": [
        {
          "name": "marketPlaceStoreOwner",
          "type": "address"
        }
      ],
      "name": "deleteMarketPlaceStoreOwner",
      "outputs": [],
      "payable": false,
      "stateMutability": "nonpayable",
      "type": "function"
    },
    {
      "constant": false,
      "inputs": [
        {
          "name": "marketPlaceStoreName",
          "type": "string"
        }
      ],
      "name": "createMarketPlaceStore",
      "outputs": [
        {
          "name": "marketPlaceStoreID",
          "type": "uint256"
        }
      ],
      "payable": false,
      "stateMutability": "nonpayable",
      "type": "function"
    },
    {
      "constant": false,
      "inputs": [
        {
          "name": "marketPlaceStoreID",
          "type": "uint256"
        }
      ],
      "name": "deleteMarketPlaceStore",
      "outputs": [],
      "payable": false,
      "stateMutability": "nonpayable",
      "type": "function"
    },
    {
      "constant": false,
      "inputs": [
        {
          "name": "marketPlaceStoreID",
          "type": "uint256"
        },
        {
          "name": "marketPlaceStoreName",
          "type": "string"
        }
      ],
      "name": "modifyMarketPlaceStoreName",
      "outputs": [],
      "payable": false,
      "stateMutability": "nonpayable",
      "type": "function"
    },
    {
      "constant": false,
      "inputs": [
        {
          "name": "marketPlaceStoreID",
          "type": "uint256"
        },
        {
          "name": "name",
          "type": "string"
        },
        {
          "name": "description",
          "type": "string"
        },
        {
          "name": "salePrice",
          "type": "uint256"
        },
        {
          "name": "stock",
          "type": "uint256"
        }
      ],
      "name": "addMarketPlaceStoreItem",
      "outputs": [
        {
          "name": "marketPlaceStoreItemId",
          "type": "uint256"
        }
      ],
      "payable": false,
      "stateMutability": "nonpayable",
      "type": "function"
    },
    {
      "constant": false,
      "inputs": [
        {
          "name": "marketPlaceStoreID",
          "type": "uint256"
        },
        {
          "name": "marketPlaceStoreItemId",
          "type": "uint256"
        }
      ],
      "name": "deleteMarketPlaceStoreItem",
      "outputs": [],
      "payable": false,
      "stateMutability": "nonpayable",
      "type": "function"
    },
    {
      "constant": false,
      "inputs": [
        {
          "name": "marketPlaceStoreID",
          "type": "uint256"
        },
        {
          "name": "marketPlaceStoreItemId",
          "type": "uint256"
        },
        {
          "name": "name",
          "type": "string"
        }
      ],
      "name": "modifyMarketPlaceStoreItemName",
      "outputs": [],
      "payable": false,
      "stateMutability": "nonpayable",
      "type": "function"
    },
    {
      "constant": false,
      "inputs": [
        {
          "name": "marketPlaceStoreID",
          "type": "uint256"
        },
        {
          "name": "marketPlaceStoreItemId",
          "type": "uint256"
        },
        {
          "name": "description",
          "type": "string"
        }
      ],
      "name": "modifyMarketPlaceStoreItemDescription",
      "outputs": [],
      "payable": false,
      "stateMutability": "nonpayable",
      "type": "function"
    },
    {
      "constant": false,
      "inputs": [
        {
          "name": "marketPlaceStoreID",
          "type": "uint256"
        },
        {
          "name": "marketPlaceStoreItemId",
          "type": "uint256"
        },
        {
          "name": "salePrice",
          "type": "uint256"
        }
      ],
      "name": "modifyMarketPlaceStoreItemSalePrice",
      "outputs": [],
      "payable": false,
      "stateMutability": "nonpayable",
      "type": "function"
    },
    {
      "constant": false,
      "inputs": [
        {
          "name": "marketPlaceStoreID",
          "type": "uint256"
        },
        {
          "name": "marketPlaceStoreItemId",
          "type": "uint256"
        },
        {
          "name": "stock",
          "type": "uint256"
        }
      ],
      "name": "modifyMarketPlaceStoreItemStock",
      "outputs": [],
      "payable": false,
      "stateMutability": "nonpayable",
      "type": "function"
    },
    {
      "constant": false,
      "inputs": [
        {
          "name": "marketPlaceStoreID",
          "type": "uint256"
        },
        {
          "name": "amount",
          "type": "uint256"
        }
      ],
      "name": "retireMarketPlaceStoreFunds",
      "outputs": [],
      "payable": false,
      "stateMutability": "nonpayable",
      "type": "function"
    },
    {
      "constant": false,
      "inputs": [
        {
          "name": "marketPlaceStoreID",
          "type": "uint256"
        },
        {
          "name": "marketPlaceStoreItemId",
          "type": "uint256"
        },
        {
          "name": "amount",
          "type": "uint256"
        }
      ],
      "name": "buyMarketPlaceStoreItem",
      "outputs": [],
      "payable": true,
      "stateMutability": "payable",
      "type": "function"
    },
    {
      "constant": true,
      "inputs": [
        {
          "name": "marketPlaceStoreID",
          "type": "uint256"
        }
      ],
      "name": "getMarketPlaceStore",
      "outputs": [
        {
          "name": "marketPlaceStoreName",
          "type": "string"
        },
        {
          "name": "marketPlaceStoreOwner",
          "type": "address"
        },
        {
          "name": "marketPlaceStoreBalance",
          "type": "uint256"
        },
        {
          "name": "marketPlaceStoreNumberOfItems",
          "type": "uint256"
        }
      ],
      "payable": false,
      "stateMutability": "view",
      "type": "function"
    },
    {
      "constant": true,
      "inputs": [
        {
          "name": "marketPlaceStoreID",
          "type": "uint256"
        },
        {
          "name": "marketPlaceStoreItemID",
          "type": "uint256"
        }
      ],
      "name": "getMarketPlaceStoreItem",
      "outputs": [
        {
          "name": "marketPlaceStoreItemName",
          "type": "string"
        },
        {
          "name": "marketPlaceStoreItemDescription",
          "type": "string"
        },
        {
          "name": "marketPlaceStoreItemSalePrice",
          "type": "uint256"
        },
        {
          "name": "marketPlaceStoreItemStock",
          "type": "uint256"
        }
      ],
      "payable": false,
      "stateMutability": "view",
      "type": "function"
    }
  ],
  "bytecode": "0x608060405234801561001057600080fd5b50336000806101000a81548173ffffffffffffffffffffffffffffffffffffffff021916908373ffffffffffffffffffffffffffffffffffffffff160217905550613fe5806100606000396000f300608060405260043610610149576000357c0100000000000000000000000000000000000000000000000000000000900463ffffffff1680630e2071321461014e5780631696680614610191578063201678b8146101d457806322ba9368146101eb57806329cbf2e9146102225780633c606f8b146102395780633de4ddd11461026d57806342581347146102ae5780635a65b958146103d85780635b8a764214610455578063682b8c7d146104b05780636abdccda146104db57806371b4f0e8146105585780638da5cb5b1461063f57806390a34fde1461069657806393dd20c8146106cd5780639b1dd76814610728578063a0d3c17514610755578063ac66c45f14610798578063aeb3f89e1461087f578063bd7b6a00146108ae578063d09b7e6e146108f1578063d7dfacf5146109d2578063e09e062c14610a45578063ee0b4f9b14610a86575b600080fd5b34801561015a57600080fd5b5061018f600480360381019080803573ffffffffffffffffffffffffffffffffffffffff169060200190929190505050610b03565b005b34801561019d57600080fd5b506101d2600480360381019080803573ffffffffffffffffffffffffffffffffffffffff169060200190929190505050610d0d565b005b3480156101e057600080fd5b506101e9610f19565b005b3480156101f757600080fd5b50610220600480360381019080803590602001909291908035906020019092919050505061104b565b005b34801561022e57600080fd5b50610237611344565b005b61026b600480360381019080803590602001909291908035906020019092919080359060200190929190505050611477565b005b34801561027957600080fd5b506102ac60048036038101908080359060200190929190803590602001909291908035906020019092919050505061190d565b005b3480156102ba57600080fd5b506102e36004803603810190808035906020019092919080359060200190929190505050611be7565b604051808060200180602001858152602001848152602001838103835287818151815260200191508051906020019080838360005b83811015610333578082015181840152602081019050610318565b50505050905090810190601f1680156103605780820380516001836020036101000a031916815260200191505b50838103825286818151815260200191508051906020019080838360005b8381101561039957808201518184015260208101905061037e565b50505050905090810190601f1680156103c65780820380516001836020036101000a031916815260200191505b50965050505050505060405180910390f35b3480156103e457600080fd5b506104536004803603810190808035906020019092919080359060200190929190803590602001908201803590602001908080601f0160208091040260200160405190810160405280939291908181526020018383808284378201915050505050509192919290505050611dda565b005b34801561046157600080fd5b50610496600480360381019080803573ffffffffffffffffffffffffffffffffffffffff169060200190929190505050612129565b604051808215151515815260200191505060405180910390f35b3480156104bc57600080fd5b506104c5612149565b6040518082815260200191505060405180910390f35b3480156104e757600080fd5b50610542600480360381019080803590602001908201803590602001908080601f016020809104026020016040519081016040528093929190818152602001838380828437820191505050505050919291929050505061214f565b6040518082815260200191505060405180910390f35b34801561056457600080fd5b5061058360048036038101908080359060200190929190505050612450565b60405180806020018573ffffffffffffffffffffffffffffffffffffffff1673ffffffffffffffffffffffffffffffffffffffff168152602001848152602001838152602001828103825286818151815260200191508051906020019080838360005b838110156106015780820151818401526020810190506105e6565b50505050905090810190601f16801561062e5780820380516001836020036101000a031916815260200191505b509550505050505060405180910390f35b34801561064b57600080fd5b5061065461257a565b604051808273ffffffffffffffffffffffffffffffffffffffff1673ffffffffffffffffffffffffffffffffffffffff16815260200191505060405180910390f35b3480156106a257600080fd5b506106cb600480360381019080803590602001909291908035906020019092919050505061259f565b005b3480156106d957600080fd5b5061070e600480360381019080803573ffffffffffffffffffffffffffffffffffffffff169060200190929190505050612816565b604051808215151515815260200191505060405180910390f35b34801561073457600080fd5b5061075360048036038101908080359060200190929190505050612836565b005b34801561076157600080fd5b50610796600480360381019080803573ffffffffffffffffffffffffffffffffffffffff169060200190929190505050612b92565b005b3480156107a457600080fd5b506107c360048036038101908080359060200190929190505050612d9c565b60405180806020018573ffffffffffffffffffffffffffffffffffffffff1673ffffffffffffffffffffffffffffffffffffffff168152602001848152602001838152602001828103825286818151815260200191508051906020019080838360005b83811015610841578082015181840152602081019050610826565b50505050905090810190601f16801561086e5780820380516001836020036101000a031916815260200191505b509550505050505060405180910390f35b34801561088b57600080fd5b50610894612e84565b604051808215151515815260200191505060405180910390f35b3480156108ba57600080fd5b506108ef600480360381019080803573ffffffffffffffffffffffffffffffffffffffff169060200190929190505050612e97565b005b3480156108fd57600080fd5b506109bc60048036038101908080359060200190929190803590602001908201803590602001908080601f0160208091040260200160405190810160405280939291908181526020018383808284378201915050505050509192919290803590602001908201803590602001908080601f016020809104026020016040519081016040528093929190818152602001838380828437820191505050505050919291929080359060200190929190803590602001909291905050506130a3565b6040518082815260200191505060405180910390f35b3480156109de57600080fd5b50610a4360048036038101908080359060200190929190803590602001908201803590602001908080601f01602080910402602001604051908101604052809392919081815260200183838082843782019150505050505091929192905050506134ea565b005b348015610a5157600080fd5b50610a84600480360381019080803590602001909291908035906020019092919080359060200190929190505050613823565b005b348015610a9257600080fd5b50610b016004803603810190808035906020019092919080359060200190929190803590602001908201803590602001908080601f0160208091040260200160405190810160405280939291908181526020018383808284378201915050505050509192919290505050613afd565b005b600060149054906101000a900460ff16151515610b88576040517f08c379a00000000000000000000000000000000000000000000000000000000081526004018080602001828103825260198152602001807f546865206d61726b657420706c61636520697320636c6f73650000000000000081525060200191505060405180910390fd5b600160003373ffffffffffffffffffffffffffffffffffffffff1673ffffffffffffffffffffffffffffffffffffffff16815260200190815260200160002060009054906101000a900460ff161515610c6f576040517f08c379a000000000000000000000000000000000000000000000000000000000815260040180806020018281038252602f8152602001807f5468652063616c6c6572206d7573742062652061206d61726b657420706c616381526020017f652061646d696e6973747261746f72000000000000000000000000000000000081525060400191505060405180910390fd5b6000600260008373ffffffffffffffffffffffffffffffffffffffff1673ffffffffffffffffffffffffffffffffffffffff16815260200190815260200160002060006101000a81548160ff0219169083151502179055508073ffffffffffffffffffffffffffffffffffffffff167fbd95a54dd37e2d6517ce342c551ac7e95f87e120aaa33fa0f25d86d43ecfcb1d60405160405180910390a250565b600060149054906101000a900460ff16151515610d92576040517f08c379a00000000000000000000000000000000000000000000000000000000081526004018080602001828103825260198152602001807f546865206d61726b657420706c61636520697320636c6f73650000000000000081525060200191505060405180910390fd5b6000809054906101000a900473ffffffffffffffffffffffffffffffffffffffff1673ffffffffffffffffffffffffffffffffffffffff163373ffffffffffffffffffffffffffffffffffffffff16141515610e7c576040517f08c379a00000000000000000000000000000000000000000000000000000000081526004018080602001828103825260308152602001807f5468652063616c6c6572206d75737420626520746865206f776e6572206f662081526020017f746865206d61726b657420706c6163650000000000000000000000000000000081525060400191505060405180910390fd5b60018060008373ffffffffffffffffffffffffffffffffffffffff1673ffffffffffffffffffffffffffffffffffffffff16815260200190815260200160002060006101000a81548160ff0219169083151502179055508073ffffffffffffffffffffffffffffffffffffffff167f044848c198cd9e95784d7574c94b314af083300b210633238336b0d2a32420d960405160405180910390a250565b6000809054906101000a900473ffffffffffffffffffffffffffffffffffffffff1673ffffffffffffffffffffffffffffffffffffffff163373ffffffffffffffffffffffffffffffffffffffff16141515611003576040517f08c379a00000000000000000000000000000000000000000000000000000000081526004018080602001828103825260308152602001807f5468652063616c6c6572206d75737420626520746865206f776e6572206f662081526020017f746865206d61726b657420706c6163650000000000000000000000000000000081525060400191505060405180910390fd5b60008060146101000a81548160ff0219169083151502179055507f4f6c14dacd65c4ad44b1590285c421d5100648ad33bc6cafd43d8f31db519ba560405160405180910390a1565b600060149054906101000a900460ff161515156110d0576040517f08c379a00000000000000000000000000000000000000000000000000000000081526004018080602001828103825260198152602001807f546865206d61726b657420706c61636520697320636c6f73650000000000000081525060200191505060405180910390fd5b600260003373ffffffffffffffffffffffffffffffffffffffff1673ffffffffffffffffffffffffffffffffffffffff16815260200190815260200160002060009054906101000a900460ff1615156111b7576040517f08c379a000000000000000000000000000000000000000000000000000000000815260040180806020018281038252602d8152602001807f5468652063616c6c6572206d7573742062652061206d61726b657420706c616381526020017f652073746f7265206f776e65720000000000000000000000000000000000000081525060400191505060405180910390fd5b816004600082815260200190815260200160002060010160009054906101000a900473ffffffffffffffffffffffffffffffffffffffff1673ffffffffffffffffffffffffffffffffffffffff163373ffffffffffffffffffffffffffffffffffffffff161415156112b7576040517f08c379a000000000000000000000000000000000000000000000000000000000815260040180806020018281038252602f8152602001807f5468652063616c6c6572206d75737420626520746865206d61726b657420706c81526020017f6163652073746f7265206f776e6572000000000000000000000000000000000081525060400191505060405180910390fd5b600460008481526020019081526020016000206004016000838152602001908152602001600020600080820160006112ef9190613e4c565b6001820160006112ff9190613e4c565b60028201600090556003820160009055505081837fadb17d2bff4854e67638f2ad13f0c9a6f7fca9f11eed08ce5b629a5814ee010c60405160405180910390a3505050565b6000809054906101000a900473ffffffffffffffffffffffffffffffffffffffff1673ffffffffffffffffffffffffffffffffffffffff163373ffffffffffffffffffffffffffffffffffffffff1614151561142e576040517f08c379a00000000000000000000000000000000000000000000000000000000081526004018080602001828103825260308152602001807f5468652063616c6c6572206d75737420626520746865206f776e6572206f662081526020017f746865206d61726b657420706c6163650000000000000000000000000000000081525060400191505060405180910390fd5b6001600060146101000a81548160ff0219169083151502179055507f3921bb5fb35e8da744ced38b9318b3a3b2df69229e14c660689f0e089e98375760405160405180910390a1565b60008060149054906101000a900460ff161515156114fd576040517f08c379a00000000000000000000000000000000000000000000000000000000081526004018080602001828103825260198152602001807f546865206d61726b657420706c61636520697320636c6f73650000000000000081525060200191505060405180910390fd5b83600260006004600084815260200190815260200160002060010160009054906101000a900473ffffffffffffffffffffffffffffffffffffffff1673ffffffffffffffffffffffffffffffffffffffff1673ffffffffffffffffffffffffffffffffffffffff16815260200190815260200160002060009054906101000a900460ff16151561161b576040517f08c379a000000000000000000000000000000000000000000000000000000000815260040180806020018281038252603c8152602001807f546865207374617465206f6620746865206d61726b657420706c61636520737481526020017f6f7265206f776e65722073686f756c642062652061646d69747465640000000081525060400191505060405180910390fd5b8484846004600084815260200190815260200160002060040160008381526020019081526020016000206003015481111515156116c0576040517f08c379a00000000000000000000000000000000000000000000000000000000081526004018080602001828103825260128152602001807f4974656d20776974686f75742073746f636b000000000000000000000000000081525060200191505060405180910390fd5b6004600089815260200190815260200160002060040160008981526020019081526020016000206002015473__Utilities_____________________________63bbe562b09091886040518363ffffffff167c0100000000000000000000000000000000000000000000000000000000028152600401808381526020018281526020019250505060206040518083038186803b15801561175f57600080fd5b505af4158015611773573d6000803e3d6000fd5b505050506040513d602081101561178957600080fd5b81019080805190602001909291905050509450843410151515611814576040517f08c379a000000000000000000000000000000000000000000000000000000000815260040180806020018281038252601e8152602001807f596f752068617665206e6f74207061696420656e6f756768206d6f6e6579000081525060200191505060405180910390fd5b846004600089815260200190815260200160002060020160008282540192505081905550856004600089815260200190815260200160002060040160008a81526020019081526020016000206003016000828254039250508190555086887fdb915ed0744f32093af99d53bf342475bd1473c23dee06454e4fd6182337e82f8888604051808381526020018281526020019250505060405180910390a384341115611903573373ffffffffffffffffffffffffffffffffffffffff166108fc8634039081150290604051600060405180830381858888f19350505050158015611901573d6000803e3d6000fd5b505b5050505050505050565b600060149054906101000a900460ff16151515611992576040517f08c379a00000000000000000000000000000000000000000000000000000000081526004018080602001828103825260198152602001807f546865206d61726b657420706c61636520697320636c6f73650000000000000081525060200191505060405180910390fd5b600260003373ffffffffffffffffffffffffffffffffffffffff1673ffffffffffffffffffffffffffffffffffffffff16815260200190815260200160002060009054906101000a900460ff161515611a79576040517f08c379a000000000000000000000000000000000000000000000000000000000815260040180806020018281038252602d8152602001807f5468652063616c6c6572206d7573742062652061206d61726b657420706c616381526020017f652073746f7265206f776e65720000000000000000000000000000000000000081525060400191505060405180910390fd5b826004600082815260200190815260200160002060010160009054906101000a900473ffffffffffffffffffffffffffffffffffffffff1673ffffffffffffffffffffffffffffffffffffffff163373ffffffffffffffffffffffffffffffffffffffff16141515611b79576040517f08c379a000000000000000000000000000000000000000000000000000000000815260040180806020018281038252602f8152602001807f5468652063616c6c6572206d75737420626520746865206d61726b657420706c81526020017f6163652073746f7265206f776e6572000000000000000000000000000000000081525060400191505060405180910390fd5b816004600086815260200190815260200160002060040160008581526020019081526020016000206003018190555082847f4ae3da4e720b8b61a7d3df066c223acab1395faacbe671b021a129ea2acef7c4846040518082815260200191505060405180910390a350505050565b6060806000806004600087815260200190815260200160002060040160008681526020019081526020016000206000018054600181600116156101000203166002900480601f016020809104026020016040519081016040528092919081815260200182805460018160011615610100020316600290048015611cab5780601f10611c8057610100808354040283529160200191611cab565b820191906000526020600020905b815481529060010190602001808311611c8e57829003601f168201915b505050505093506004600087815260200190815260200160002060040160008681526020019081526020016000206001018054600181600116156101000203166002900480601f016020809104026020016040519081016040528092919081815260200182805460018160011615610100020316600290048015611d705780601f10611d4557610100808354040283529160200191611d70565b820191906000526020600020905b815481529060010190602001808311611d5357829003601f168201915b5050505050925060046000878152602001908152602001600020600401600086815260200190815260200160002060020154915060046000878152602001908152602001600020600401600086815260200190815260200160002060030154905092959194509250565b600060149054906101000a900460ff16151515611e5f576040517f08c379a00000000000000000000000000000000000000000000000000000000081526004018080602001828103825260198152602001807f546865206d61726b657420706c61636520697320636c6f73650000000000000081525060200191505060405180910390fd5b600260003373ffffffffffffffffffffffffffffffffffffffff1673ffffffffffffffffffffffffffffffffffffffff16815260200190815260200160002060009054906101000a900460ff161515611f46576040517f08c379a000000000000000000000000000000000000000000000000000000000815260040180806020018281038252602d8152602001807f5468652063616c6c6572206d7573742062652061206d61726b657420706c616381526020017f652073746f7265206f776e65720000000000000000000000000000000000000081525060400191505060405180910390fd5b826004600082815260200190815260200160002060010160009054906101000a900473ffffffffffffffffffffffffffffffffffffffff1673ffffffffffffffffffffffffffffffffffffffff163373ffffffffffffffffffffffffffffffffffffffff16141515612046576040517f08c379a000000000000000000000000000000000000000000000000000000000815260040180806020018281038252602f8152602001807f5468652063616c6c6572206d75737420626520746865206d61726b657420706c81526020017f6163652073746f7265206f776e6572000000000000000000000000000000000081525060400191505060405180910390fd5b816004600086815260200190815260200160002060040160008581526020019081526020016000206000019080519060200190612084929190613e94565b5082847f0d6704adb55408243a180b2d7758e61afcd37a1ed348be3dbca5ec2feda87c3d846040518080602001828103825283818151815260200191508051906020019080838360005b838110156120e95780820151818401526020810190506120ce565b50505050905090810190601f1680156121165780820380516001836020036101000a031916815260200191505b509250505060405180910390a350505050565b60026020528060005260406000206000915054906101000a900460ff1681565b60035481565b60008060149054906101000a900460ff161515156121d5576040517f08c379a00000000000000000000000000000000000000000000000000000000081526004018080602001828103825260198152602001807f546865206d61726b657420706c61636520697320636c6f73650000000000000081525060200191505060405180910390fd5b600260003373ffffffffffffffffffffffffffffffffffffffff1673ffffffffffffffffffffffffffffffffffffffff16815260200190815260200160002060009054906101000a900460ff1615156122bc576040517f08c379a000000000000000000000000000000000000000000000000000000000815260040180806020018281038252602d8152602001807f5468652063616c6c6572206d7573742062652061206d61726b657420706c616381526020017f652073746f7265206f776e65720000000000000000000000000000000000000081525060400191505060405180910390fd5b600360008154809291906001019190505590506080604051908101604052808381526020013373ffffffffffffffffffffffffffffffffffffffff168152602001600081526020016000815250600460008381526020019081526020016000206000820151816000019080519060200190612338929190613f14565b5060208201518160010160006101000a81548173ffffffffffffffffffffffffffffffffffffffff021916908373ffffffffffffffffffffffffffffffffffffffff16021790555060408201518160020155606082015181600301559050503373ffffffffffffffffffffffffffffffffffffffff16817f513ad979af31ed840b467aac55a0f156bfb4dc4a3680be918678b468a74c5fd3846040518080602001828103825283818151815260200191508051906020019080838360005b838110156124115780820151818401526020810190506123f6565b50505050905090810190601f16801561243e5780820380516001836020036101000a031916815260200191505b509250505060405180910390a3919050565b60606000806000600460008681526020019081526020016000206000018054600181600116156101000203166002900480601f0160208091040260200160405190810160405280929190818152602001828054600181600116156101000203166002900480156125015780601f106124d657610100808354040283529160200191612501565b820191906000526020600020905b8154815290600101906020018083116124e457829003601f168201915b505050505093506004600086815260200190815260200160002060010160009054906101000a900473ffffffffffffffffffffffffffffffffffffffff16925060046000868152602001908152602001600020600201549150600460008681526020019081526020016000206003015490509193509193565b6000809054906101000a900473ffffffffffffffffffffffffffffffffffffffff1681565b816004600082815260200190815260200160002060010160009054906101000a900473ffffffffffffffffffffffffffffffffffffffff1673ffffffffffffffffffffffffffffffffffffffff163373ffffffffffffffffffffffffffffffffffffffff1614151561269f576040517f08c379a000000000000000000000000000000000000000000000000000000000815260040180806020018281038252602f8152602001807f5468652063616c6c6572206d75737420626520746865206d61726b657420706c81526020017f6163652073746f7265206f776e6572000000000000000000000000000000000081525060400191505060405180910390fd5b828260046000838152602001908152602001600020600201548111151515612755576040517f08c379a00000000000000000000000000000000000000000000000000000000081526004018080602001828103825260298152602001807f546865206d61726b657420706c61636520686176656e277420676f7420656e6f81526020017f756768206574686572000000000000000000000000000000000000000000000081525060400191505060405180910390fd5b8360046000878152602001908152602001600020600201600082825403925050819055503373ffffffffffffffffffffffffffffffffffffffff16857f7ae1cf486c248477b6778952b106ceeac63c8b2ba6eec7e5da421c39e7603a80866040518082815260200191505060405180910390a33373ffffffffffffffffffffffffffffffffffffffff166108fc859081150290604051600060405180830381858888f1935050505015801561280e573d6000803e3d6000fd5b505050505050565b60016020528060005260406000206000915054906101000a900460ff1681565b60008060149054906101000a900460ff161515156128bc576040517f08c379a00000000000000000000000000000000000000000000000000000000081526004018080602001828103825260198152602001807f546865206d61726b657420706c61636520697320636c6f73650000000000000081525060200191505060405180910390fd5b600260003373ffffffffffffffffffffffffffffffffffffffff1673ffffffffffffffffffffffffffffffffffffffff16815260200190815260200160002060009054906101000a900460ff1615156129a3576040517f08c379a000000000000000000000000000000000000000000000000000000000815260040180806020018281038252602d8152602001807f5468652063616c6c6572206d7573742062652061206d61726b657420706c616381526020017f652073746f7265206f776e65720000000000000000000000000000000000000081525060400191505060405180910390fd5b816004600082815260200190815260200160002060010160009054906101000a900473ffffffffffffffffffffffffffffffffffffffff1673ffffffffffffffffffffffffffffffffffffffff163373ffffffffffffffffffffffffffffffffffffffff16141515612aa3576040517f08c379a000000000000000000000000000000000000000000000000000000000815260040180806020018281038252602f8152602001807f5468652063616c6c6572206d75737420626520746865206d61726b657420706c81526020017f6163652073746f7265206f776e6572000000000000000000000000000000000081525060400191505060405180910390fd5b600460008481526020019081526020016000206002015491506004600084815260200190815260200160002060008082016000612ae09190613e4c565b6001820160006101000a81549073ffffffffffffffffffffffffffffffffffffffff0219169055600282016000905560038201600090555050827f776ad3eb01d95ac77d312d1d2dd9acd7143d5fe8985883ae622411fb2177c46160405160405180910390a23373ffffffffffffffffffffffffffffffffffffffff166108fc839081150290604051600060405180830381858888f19350505050158015612b8c573d6000803e3d6000fd5b50505050565b600060149054906101000a900460ff16151515612c17576040517f08c379a00000000000000000000000000000000000000000000000000000000081526004018080602001828103825260198152602001807f546865206d61726b657420706c61636520697320636c6f73650000000000000081525060200191505060405180910390fd5b600160003373ffffffffffffffffffffffffffffffffffffffff1673ffffffffffffffffffffffffffffffffffffffff16815260200190815260200160002060009054906101000a900460ff161515612cfe576040517f08c379a000000000000000000000000000000000000000000000000000000000815260040180806020018281038252602f8152602001807f5468652063616c6c6572206d7573742062652061206d61726b657420706c616381526020017f652061646d696e6973747261746f72000000000000000000000000000000000081525060400191505060405180910390fd5b6001600260008373ffffffffffffffffffffffffffffffffffffffff1673ffffffffffffffffffffffffffffffffffffffff16815260200190815260200160002060006101000a81548160ff0219169083151502179055508073ffffffffffffffffffffffffffffffffffffffff167f677753ff6da10c2f08971eec975cdd1731ba5038a060aa051bbbb98ea676afb560405160405180910390a250565b6004602052806000526040600020600091509050806000018054600181600116156101000203166002900480601f016020809104026020016040519081016040528092919081815260200182805460018160011615610100020316600290048015612e485780601f10612e1d57610100808354040283529160200191612e48565b820191906000526020600020905b815481529060010190602001808311612e2b57829003601f168201915b5050505050908060010160009054906101000a900473ffffffffffffffffffffffffffffffffffffffff16908060020154908060030154905084565b600060149054906101000a900460ff1681565b600060149054906101000a900460ff16151515612f1c576040517f08c379a00000000000000000000000000000000000000000000000000000000081526004018080602001828103825260198152602001807f546865206d61726b657420706c61636520697320636c6f73650000000000000081525060200191505060405180910390fd5b6000809054906101000a900473ffffffffffffffffffffffffffffffffffffffff1673ffffffffffffffffffffffffffffffffffffffff163373ffffffffffffffffffffffffffffffffffffffff16141515613006576040517f08c379a00000000000000000000000000000000000000000000000000000000081526004018080602001828103825260308152602001807f5468652063616c6c6572206d75737420626520746865206f776e6572206f662081526020017f746865206d61726b657420706c6163650000000000000000000000000000000081525060400191505060405180910390fd5b60018060008373ffffffffffffffffffffffffffffffffffffffff1673ffffffffffffffffffffffffffffffffffffffff16815260200190815260200160002060006101000a81548160ff0219169083151502179055508073ffffffffffffffffffffffffffffffffffffffff167f69ce459a9ddb56bcc4904311d17b4d64b3f853549fb2635fa916465135dfdf8460405160405180910390a250565b600080600060149054906101000a900460ff1615151561312b576040517f08c379a00000000000000000000000000000000000000000000000000000000081526004018080602001828103825260198152602001807f546865206d61726b657420706c61636520697320636c6f73650000000000000081525060200191505060405180910390fd5b600260003373ffffffffffffffffffffffffffffffffffffffff1673ffffffffffffffffffffffffffffffffffffffff16815260200190815260200160002060009054906101000a900460ff161515613212576040517f08c379a000000000000000000000000000000000000000000000000000000000815260040180806020018281038252602d8152602001807f5468652063616c6c6572206d7573742062652061206d61726b657420706c616381526020017f652073746f7265206f776e65720000000000000000000000000000000000000081525060400191505060405180910390fd5b866004600082815260200190815260200160002060010160009054906101000a900473ffffffffffffffffffffffffffffffffffffffff1673ffffffffffffffffffffffffffffffffffffffff163373ffffffffffffffffffffffffffffffffffffffff16141515613312576040517f08c379a000000000000000000000000000000000000000000000000000000000815260040180806020018281038252602f8152602001807f5468652063616c6c6572206d75737420626520746865206d61726b657420706c81526020017f6163652073746f7265206f776e6572000000000000000000000000000000000081525060400191505060405180910390fd5b60046000898152602001908152602001600020915081600301600081548092919060010191905055925060806040519081016040528088815260200187815260200186815260200185815250826004016000858152602001908152602001600020600082015181600001908051906020019061338f929190613f14565b5060208201518160010190805190602001906133ac929190613f14565b50604082015181600201556060820151816003015590505082887fab7976a3ded11d80bf5ce6deaf41478da5caa007e8eee7004c40562712a37ddd89898989604051808060200180602001858152602001848152602001838103835287818151815260200191508051906020019080838360005b8381101561343b578082015181840152602081019050613420565b50505050905090810190601f1680156134685780820380516001836020036101000a031916815260200191505b50838103825286818151815260200191508051906020019080838360005b838110156134a1578082015181840152602081019050613486565b50505050905090810190601f1680156134ce5780820380516001836020036101000a031916815260200191505b50965050505050505060405180910390a3505095945050505050565b600060149054906101000a900460ff1615151561356f576040517f08c379a00000000000000000000000000000000000000000000000000000000081526004018080602001828103825260198152602001807f546865206d61726b657420706c61636520697320636c6f73650000000000000081525060200191505060405180910390fd5b600260003373ffffffffffffffffffffffffffffffffffffffff1673ffffffffffffffffffffffffffffffffffffffff16815260200190815260200160002060009054906101000a900460ff161515613656576040517f08c379a000000000000000000000000000000000000000000000000000000000815260040180806020018281038252602d8152602001807f5468652063616c6c6572206d7573742062652061206d61726b657420706c616381526020017f652073746f7265206f776e65720000000000000000000000000000000000000081525060400191505060405180910390fd5b816004600082815260200190815260200160002060010160009054906101000a900473ffffffffffffffffffffffffffffffffffffffff1673ffffffffffffffffffffffffffffffffffffffff163373ffffffffffffffffffffffffffffffffffffffff16141515613756576040517f08c379a000000000000000000000000000000000000000000000000000000000815260040180806020018281038252602f8152602001807f5468652063616c6c6572206d75737420626520746865206d61726b657420706c81526020017f6163652073746f7265206f776e6572000000000000000000000000000000000081525060400191505060405180910390fd5b81600460008581526020019081526020016000206000019080519060200190613780929190613e94565b50827f47154ff12d7de4c4b3dc300242a46c42600889c16f7d9bf02a73d957fe7be109836040518080602001828103825283818151815260200191508051906020019080838360005b838110156137e45780820151818401526020810190506137c9565b50505050905090810190601f1680156138115780820380516001836020036101000a031916815260200191505b509250505060405180910390a2505050565b600060149054906101000a900460ff161515156138a8576040517f08c379a00000000000000000000000000000000000000000000000000000000081526004018080602001828103825260198152602001807f546865206d61726b657420706c61636520697320636c6f73650000000000000081525060200191505060405180910390fd5b600260003373ffffffffffffffffffffffffffffffffffffffff1673ffffffffffffffffffffffffffffffffffffffff16815260200190815260200160002060009054906101000a900460ff16151561398f576040517f08c379a000000000000000000000000000000000000000000000000000000000815260040180806020018281038252602d8152602001807f5468652063616c6c6572206d7573742062652061206d61726b657420706c616381526020017f652073746f7265206f776e65720000000000000000000000000000000000000081525060400191505060405180910390fd5b826004600082815260200190815260200160002060010160009054906101000a900473ffffffffffffffffffffffffffffffffffffffff1673ffffffffffffffffffffffffffffffffffffffff163373ffffffffffffffffffffffffffffffffffffffff16141515613a8f576040517f08c379a000000000000000000000000000000000000000000000000000000000815260040180806020018281038252602f8152602001807f5468652063616c6c6572206d75737420626520746865206d61726b657420706c81526020017f6163652073746f7265206f776e6572000000000000000000000000000000000081525060400191505060405180910390fd5b816004600086815260200190815260200160002060040160008581526020019081526020016000206002018190555082847f18fadf210428b554867e0650c451b525d8446c2aea6ba1dce79a707b33ec11a8846040518082815260200191505060405180910390a350505050565b600060149054906101000a900460ff16151515613b82576040517f08c379a00000000000000000000000000000000000000000000000000000000081526004018080602001828103825260198152602001807f546865206d61726b657420706c61636520697320636c6f73650000000000000081525060200191505060405180910390fd5b600260003373ffffffffffffffffffffffffffffffffffffffff1673ffffffffffffffffffffffffffffffffffffffff16815260200190815260200160002060009054906101000a900460ff161515613c69576040517f08c379a000000000000000000000000000000000000000000000000000000000815260040180806020018281038252602d8152602001807f5468652063616c6c6572206d7573742062652061206d61726b657420706c616381526020017f652073746f7265206f776e65720000000000000000000000000000000000000081525060400191505060405180910390fd5b826004600082815260200190815260200160002060010160009054906101000a900473ffffffffffffffffffffffffffffffffffffffff1673ffffffffffffffffffffffffffffffffffffffff163373ffffffffffffffffffffffffffffffffffffffff16141515613d69576040517f08c379a000000000000000000000000000000000000000000000000000000000815260040180806020018281038252602f8152602001807f5468652063616c6c6572206d75737420626520746865206d61726b657420706c81526020017f6163652073746f7265206f776e6572000000000000000000000000000000000081525060400191505060405180910390fd5b816004600086815260200190815260200160002060040160008581526020019081526020016000206001019080519060200190613da7929190613e94565b5082847f7d4b7ca90ea114879d13cac52f4dc2656cf1d2bcef3aac7814bfc4f75f0fe3a6846040518080602001828103825283818151815260200191508051906020019080838360005b83811015613e0c578082015181840152602081019050613df1565b50505050905090810190601f168015613e395780820380516001836020036101000a031916815260200191505b509250505060405180910390a350505050565b50805460018160011615610100020316600290046000825580601f10613e725750613e91565b601f016020900490600052602060002090810190613e909190613f94565b5b50565b828054600181600116156101000203166002900490600052602060002090601f016020900481019282601f10613ed557805160ff1916838001178555613f03565b82800160010185558215613f03579182015b82811115613f02578251825591602001919060010190613ee7565b5b509050613f109190613f94565b5090565b828054600181600116156101000203166002900490600052602060002090601f016020900481019282601f10613f5557805160ff1916838001178555613f83565b82800160010185558215613f83579182015b82811115613f82578251825591602001919060010190613f67565b5b509050613f909190613f94565b5090565b613fb691905b80821115613fb2576000816000905550600101613f9a565b5090565b905600a165627a7a7230582072fbbdea5bb47c2dcca52e694ff221acdae0bdb6bb2e8d492396b12e6d553e680029",
  "source": "pragma solidity ^0.4.24;\n\nimport \"../contracts/Utilities.sol\";\n\n/// @title Market Place\n/// @author Jos Carlos Daz Hulamo\ncontract MarketPlace {\n\n    // Utilities lib\n    using Utilities for uint;\n\n    // STRUCTS\n\n    // Store on the market place\n    struct MarketPlaceStore {\n        string name;\n        address owner;\n        uint balance;\n        uint numberOfItems;\n        mapping (uint => Item) items;\n    }\n\n    // Item on the store market place\n    struct Item {\n        string name;\n        string description;\n        uint salePrice;\n        uint stock;\n    }\n\n    // STATE\n\n    // The owner of the contract\n    address public owner;\n\n    // The state of the market place\n    bool public isCloseMarketPlace;\n\n    // Market place administrators\n    mapping (address => bool) public marketPlaceAdministrators;\n\n    // Market place store owner\n    mapping (address => bool) public marketPlaceStoreOwners;\n\n    // Number of market place stores\n    uint public numberOfMarketPlaceStores;\n\n    // Markte place stores\n    mapping (uint => MarketPlaceStore) public marketPlaceStores;\n\n    // EVENTS\n\n    event MarketPlaceClosed();\n    event MarketPlaceOpened();\n    event MarketPlaceAdministratorAdded(address indexed marketPlaceAdministrator);\n    event MarketPlaceAdministratorDeleted(address indexed marketPlaceAdministrator);\n    event MarketPlaceStoreOwnerAdded(address indexed marketPlaceStoreOwner);\n    event MarketPlaceStoreOwnerDeleted(address indexed marketPlaceStoreOwner);\n    event MarketPlaceStoreCreated(uint indexed marketPlaceStoreID, address indexed owner, string marketPlaceStoreName);\n    event MarketPlaceStoreDeleted(uint indexed marketPlaceStoreID);\n    event MarketPlaceStoreNameModified(uint indexed marketPlaceStoreID, string marketPlaceStoreName);    \n    event MarketPlaceStoreItemAdded(uint indexed marketPlaceStoreID, uint indexed itemID, string name, string des, uint price, uint stock);    \n    event MarketPlaceStoreItemDeleted(uint indexed marketPlaceStoreID, uint indexed itemID);    \n    event MarketPlaceStoreItemNameModified(uint indexed marketPlaceStoreID, uint indexed marketPlaceStoreItemID, string name);\n    event MarketPlaceStoreItemDescriptionModified(uint indexed marketPlaceStoreID, uint indexed itemID, string description);    \n    event MarketPlaceStoreItemSalePriceModified(uint indexed marketPlaceStoreID, uint indexed itemID, uint salePrice);\n    event MarketPlaceStoreItemStockModified(uint indexed marketPlaceStoreID, uint indexed itemID, uint stock);\n    event MarketPlaceStoreFundsWithdrawn(uint indexed marketPlaceStoreID, address indexed owner, uint amount);    \n    event MarketPlaceStoreItemSold(uint indexed marketPlaceStoreID, uint indexed marketPlaceStoreItemID, uint amount, uint expense);\n\n    // MODIFIERS\n\n    // The caller must be the owner of the market place\n    modifier onlyMarketPlaceOwner {\n        require(msg.sender == owner, \"The caller must be the owner of the market place\");\n        _;\n    }\n\n    // The market place must be open\n    modifier marketPlaceOpen {\n        require(!isCloseMarketPlace, \"The market place is close\");\n        _;\n    }\n\n    // The caller must be an marketPlace administrator\n    modifier onlyMarketPlaceAdministrator {\n        require(\n            marketPlaceAdministrators[msg.sender], \"The caller must be a market place administrator\");\n        _;\n    }    \n\n    // The caller must be a marketPlace store owner\n    modifier onlyMarketPlaceStoresOwner {\n        require(marketPlaceStoreOwners[msg.sender], \"The caller must be a market place store owner\");\n        _;\n    }\n\n    // The caller must be the market place store owner\n    modifier onlyMarketPlaceStoreOwner(uint marketPlaceStoreID) {\n        require(\n            msg.sender == marketPlaceStores[marketPlaceStoreID].owner, \"The caller must be the market place store owner\");\n        _;\n    }\n\n    // The store must have enough ether to withdraw\n    modifier marketPlaceStoreEnoughFunds(uint marketPlaceStoreID, uint amount) {\n        require(amount <= marketPlaceStores[marketPlaceStoreID].balance, \"The market place haven't got enough ether\");\n        _;\n    }\n\n    // The state of the market place store owner should be admitted\n    modifier marketPlaceStoreOwnerAdmitted(uint marketPlaceStoreID) {\n        require(\n            marketPlaceStoreOwners[marketPlaceStores[marketPlaceStoreID].owner], \"The state of the market place store owner should be admitted\");\n        _;\n    }    \n\n    // The store must have stock of the item\n    modifier marketPlaceStoreItemHaveStock(uint marketPlaceStoreID, uint marketPlaceStoreItemId, uint amount) {\n        require(\n            amount <= marketPlaceStores[marketPlaceStoreID].items[marketPlaceStoreItemId].stock, \"Item without stock\");\n        _;\n    }\n\n    // Constructor\n    constructor() public {\n        owner = msg.sender;\n    }\n\n    // FUNCTIONS\n\n    /// @notice Close market place\n    function closeMarketPlace() public onlyMarketPlaceOwner {\n        isCloseMarketPlace = true;\n        emit MarketPlaceClosed();\n    }\n\n    /// @notice Open market place\n    function openMarketPlace() public onlyMarketPlaceOwner {\n        isCloseMarketPlace = false;\n        emit MarketPlaceOpened();\n    }\n\n    /// @notice Add address to market place admininistrators\n    /// @param marketPlaceAdministrator Address to add\n    function addMarketPlaceAdministrator(address marketPlaceAdministrator)\n        public\n        marketPlaceOpen\n        onlyMarketPlaceOwner\n    {\n        marketPlaceAdministrators[marketPlaceAdministrator] = true;\n        emit MarketPlaceAdministratorAdded(marketPlaceAdministrator);\n    }    \n\n    /// @notice Delete address from market place admininistrators\n    /// @param marketPlaceAdministrator Address to delete\n    function deleteMarketPlaceAdministrator(address marketPlaceAdministrator)\n        public\n        marketPlaceOpen\n        onlyMarketPlaceOwner\n    {\n        marketPlaceAdministrators[marketPlaceAdministrator] = true;\n        emit MarketPlaceAdministratorDeleted(marketPlaceAdministrator);\n    }      \n\n    /// @notice Add address to market place store owners\n    /// @param marketPlaceStoreOwner Address to add\n    function addMarketPlaceStoreOwner(address marketPlaceStoreOwner)\n        public\n        marketPlaceOpen\n        onlyMarketPlaceAdministrator\n    {\n        marketPlaceStoreOwners[marketPlaceStoreOwner] = true;\n        emit MarketPlaceStoreOwnerAdded(marketPlaceStoreOwner);\n    }\n\n    /// @notice Delete address from market place store owners\n    /// @param marketPlaceStoreOwner Address to delete\n    function deleteMarketPlaceStoreOwner(address marketPlaceStoreOwner)\n        public\n        marketPlaceOpen\n        onlyMarketPlaceAdministrator\n    {\n        marketPlaceStoreOwners[marketPlaceStoreOwner] = false;\n        emit MarketPlaceStoreOwnerDeleted(marketPlaceStoreOwner);\n    }    \n\n    /// @notice Create a market place store\n    /// @param marketPlaceStoreName Store name\n    /// @return The store\n    function createMarketPlaceStore(string marketPlaceStoreName)\n        public\n        marketPlaceOpen\n        onlyMarketPlaceStoresOwner\n        returns (uint marketPlaceStoreID)\n    {\n        marketPlaceStoreID = numberOfMarketPlaceStores++;\n        marketPlaceStores[marketPlaceStoreID] = MarketPlaceStore(marketPlaceStoreName, msg.sender, 0, 0);\n        emit MarketPlaceStoreCreated(marketPlaceStoreID, msg.sender, marketPlaceStoreName);\n    }\n\n    /// @notice Delete market place store and transfer the funds to the market place owner\n    /// @param marketPlaceStoreID The market place store id\n    function deleteMarketPlaceStore(uint marketPlaceStoreID)\n        public\n        marketPlaceOpen\n        onlyMarketPlaceStoresOwner\n        onlyMarketPlaceStoreOwner(marketPlaceStoreID)\n    {\n        uint storeBalance = marketPlaceStores[marketPlaceStoreID].balance;\n        delete marketPlaceStores[marketPlaceStoreID];\n        emit MarketPlaceStoreDeleted(marketPlaceStoreID);\n        msg.sender.transfer(storeBalance);\n    }    \n\n    /// @notice Modify the name of a market place store\n    /// @param marketPlaceStoreID The market place store id\n    /// @param marketPlaceStoreName The market place store name\n    function modifyMarketPlaceStoreName(uint marketPlaceStoreID, string marketPlaceStoreName)\n        public\n        marketPlaceOpen\n        onlyMarketPlaceStoresOwner\n        onlyMarketPlaceStoreOwner(marketPlaceStoreID)\n    {\n        marketPlaceStores[marketPlaceStoreID].name = marketPlaceStoreName;\n        emit MarketPlaceStoreNameModified(marketPlaceStoreID, marketPlaceStoreName);\n    }    \n\n    /// @notice Add items to the market place store\n    /// @param marketPlaceStoreID The market place store id\n    /// @param name The name of the item\n    /// @param description The description of the item\n    /// @param salePrice The sale price of the item\n    /// @param stock The stock of the item\n    /// @return The market place store item id\n    function addMarketPlaceStoreItem(uint marketPlaceStoreID, string name, string description, uint salePrice, uint stock)\n        public\n        marketPlaceOpen\n        onlyMarketPlaceStoresOwner\n        onlyMarketPlaceStoreOwner(marketPlaceStoreID)\n        returns (uint marketPlaceStoreItemId)\n    {\n        MarketPlaceStore storage marketPlaceStore = marketPlaceStores[marketPlaceStoreID];\n        marketPlaceStoreItemId = marketPlaceStore.numberOfItems++;\n        marketPlaceStore.items[marketPlaceStoreItemId] = Item(name, description, salePrice, stock);\n        emit MarketPlaceStoreItemAdded(marketPlaceStoreID, marketPlaceStoreItemId, name, description, salePrice, stock);\n    }    \n\n    /// @notice Delete item from the market place store stock\n    /// @param marketPlaceStoreID The market place store id\n    /// @param marketPlaceStoreItemId  The market place store item id\n    function deleteMarketPlaceStoreItem(uint marketPlaceStoreID, uint marketPlaceStoreItemId)\n        public\n        marketPlaceOpen\n        onlyMarketPlaceStoresOwner\n        onlyMarketPlaceStoreOwner(marketPlaceStoreID)\n    {\n        delete marketPlaceStores[marketPlaceStoreID].items[marketPlaceStoreItemId];\n        emit MarketPlaceStoreItemDeleted(marketPlaceStoreID, marketPlaceStoreItemId);\n    }\n\n    /// @notice Modify the item name from the market place store\n    /// @param marketPlaceStoreID The market place store id\n    /// @param marketPlaceStoreItemId The market place store item id\n    /// @param name The item name.\n    function modifyMarketPlaceStoreItemName(uint marketPlaceStoreID, uint marketPlaceStoreItemId, string name)\n        public\n        marketPlaceOpen\n        onlyMarketPlaceStoresOwner\n        onlyMarketPlaceStoreOwner(marketPlaceStoreID)\n    {\n        marketPlaceStores[marketPlaceStoreID].items[marketPlaceStoreItemId].name = name;\n        emit MarketPlaceStoreItemNameModified(marketPlaceStoreID, marketPlaceStoreItemId, name);\n    }\n\n    /// @notice Modify the item name from the market place store\n    /// @param marketPlaceStoreID The store.\n    /// @param marketPlaceStoreItemId The market place store item id\n    /// @param description The description of the item\n    function modifyMarketPlaceStoreItemDescription(uint marketPlaceStoreID, uint marketPlaceStoreItemId, string description)\n        public\n        marketPlaceOpen\n        onlyMarketPlaceStoresOwner\n        onlyMarketPlaceStoreOwner(marketPlaceStoreID)\n    {\n        marketPlaceStores[marketPlaceStoreID].items[marketPlaceStoreItemId].description = description;\n        emit MarketPlaceStoreItemDescriptionModified(marketPlaceStoreID, marketPlaceStoreItemId, description);\n    }\n\n    /// @notice Modify the item sale price from the market place store\n    /// @param marketPlaceStoreID The market place store id\n    /// @param marketPlaceStoreItemId The market place store item id\n    /// @param salePrice The sale price of the item\n    function modifyMarketPlaceStoreItemSalePrice(uint marketPlaceStoreID, uint marketPlaceStoreItemId, uint salePrice)\n        public\n        marketPlaceOpen\n        onlyMarketPlaceStoresOwner\n        onlyMarketPlaceStoreOwner(marketPlaceStoreID)\n    {\n        marketPlaceStores[marketPlaceStoreID].items[marketPlaceStoreItemId].salePrice = salePrice;\n        emit MarketPlaceStoreItemSalePriceModified(marketPlaceStoreID, marketPlaceStoreItemId, salePrice);\n    }\n\n    /// @notice Modify the item stock from the market place store\n    /// @param marketPlaceStoreID The market place store id\n    /// @param marketPlaceStoreItemId The market place store item id\n    /// @param stock The stock of the item\n    function modifyMarketPlaceStoreItemStock(uint marketPlaceStoreID, uint marketPlaceStoreItemId, uint stock)\n        public\n        marketPlaceOpen\n        onlyMarketPlaceStoresOwner\n        onlyMarketPlaceStoreOwner(marketPlaceStoreID)\n    {\n        marketPlaceStores[marketPlaceStoreID].items[marketPlaceStoreItemId].stock = stock;\n        emit MarketPlaceStoreItemStockModified(marketPlaceStoreID, marketPlaceStoreItemId, stock);\n    }    \n\n    /// @notice Retire funds from the balance of a market place store\n    /// @param marketPlaceStoreID The market place store id\n    /// @param amount The amount to Retire.\n    function retireMarketPlaceStoreFunds(uint marketPlaceStoreID, uint amount)\n        public\n        onlyMarketPlaceStoreOwner(marketPlaceStoreID)\n        marketPlaceStoreEnoughFunds(marketPlaceStoreID, amount)\n    {\n        marketPlaceStores[marketPlaceStoreID].balance -= amount;\n        emit MarketPlaceStoreFundsWithdrawn(marketPlaceStoreID, msg.sender, amount);\n        msg.sender.transfer(amount);\n    }    \n\n    /// @notice Buy a item from a market place store\n    /// @param marketPlaceStoreID The market place store id\n    /// @param marketPlaceStoreItemId The market place store item id to buy\n    /// @param amount The amount to buy\n    function buyMarketPlaceStoreItem(uint marketPlaceStoreID, uint marketPlaceStoreItemId, uint amount)\n        public\n        payable\n        marketPlaceOpen\n        marketPlaceStoreOwnerAdmitted(marketPlaceStoreID)\n        marketPlaceStoreItemHaveStock(marketPlaceStoreID, marketPlaceStoreItemId, amount)\n    {\n        uint expense = marketPlaceStores[marketPlaceStoreID].items[marketPlaceStoreID].salePrice.multiplication(amount);\n\n        require(msg.value >= expense, \"You have not paid enough money\");\n\n        marketPlaceStores[marketPlaceStoreItemId].balance += expense;\n        marketPlaceStores[marketPlaceStoreItemId].items[marketPlaceStoreID].stock -= amount;\n\n        emit MarketPlaceStoreItemSold(marketPlaceStoreID, marketPlaceStoreItemId, amount, expense);\n\n        if (msg.value > expense)\n            msg.sender.transfer(msg.value - expense);\n    }    \n\n    /// @notice Get the information about a market place store\n    /// @param marketPlaceStoreID The market place store id\n    /// @return The market place store name\n    /// @return The market place store owner\n    /// @return The market place store balance\n    /// @return The market place store number of items\n    function getMarketPlaceStore(uint marketPlaceStoreID)\n        public\n        view\n        returns (string marketPlaceStoreName, address marketPlaceStoreOwner, uint marketPlaceStoreBalance, uint marketPlaceStoreNumberOfItems)\n    {\n        marketPlaceStoreName = marketPlaceStores[marketPlaceStoreID].name;\n        marketPlaceStoreOwner = marketPlaceStores[marketPlaceStoreID].owner;\n        marketPlaceStoreBalance = marketPlaceStores[marketPlaceStoreID].balance;\n        marketPlaceStoreNumberOfItems = marketPlaceStores[marketPlaceStoreID].numberOfItems;\n    }\n\n    /// @notice Get the information about a item into a market place store\n    /// @param marketPlaceStoreID The market place store id\n    /// @param marketPlaceStoreItemID The market place store item id\n    /// @return The market place store item name\n    /// @return The market place store item description\n    /// @return The market place store item sale price\n    /// @return The market place store item stock\n    function getMarketPlaceStoreItem(uint marketPlaceStoreID, uint marketPlaceStoreItemID)\n        public\n        view\n        returns (string marketPlaceStoreItemName, string marketPlaceStoreItemDescription, uint marketPlaceStoreItemSalePrice, uint marketPlaceStoreItemStock)\n    {\n        marketPlaceStoreItemName = marketPlaceStores[marketPlaceStoreID].items[marketPlaceStoreItemID].name;\n        marketPlaceStoreItemDescription = marketPlaceStores[marketPlaceStoreID].items[marketPlaceStoreItemID].description;\n        marketPlaceStoreItemSalePrice = marketPlaceStores[marketPlaceStoreID].items[marketPlaceStoreItemID].salePrice;\n        marketPlaceStoreItemStock = marketPlaceStores[marketPlaceStoreID].items[marketPlaceStoreItemID].stock;\n    }\n}",
  "sourcePath": "/home/jcdiazhue/online-marketplace/contracts/MarketPlace.sol",
  "compiler": {
    "name": "solc",
    "version": "0.4.25+commit.59dbf8f1.Emscripten.clang"
  },
  "schemaVersion": "2.0.2",
  "updatedAt": "2019-01-25T17:52:53.989Z"
}