{
  "contractName": "Utilities",
  "abi": [
    {
      "constant": true,
      "inputs": [
        {
          "name": "firstNumber",
          "type": "uint256"
        },
        {
          "name": "secondNumber",
          "type": "uint256"
        }
      ],
      "name": "multiplication",
      "outputs": [
        {
          "name": "result",
          "type": "uint256"
        }
      ],
      "payable": false,
      "stateMutability": "pure",
      "type": "function"
    }
  ],
  "bytecode": "0x610168610030600b82828239805160001a6073146000811461002057610022565bfe5b5030600052607381538281f3007300000000000000000000000000000000000000003014608060405260043610610058576000357c0100000000000000000000000000000000000000000000000000000000900463ffffffff168063bbe562b01461005d575b600080fd5b610085600480360381019080803590602001909291908035906020019092919050505061009b565b6040518082815260200191505060405180910390f35b6000808314156100ae5760009050610136565b81830290508183828115156100bf57fe5b04141515610135576040517f08c379a00000000000000000000000000000000000000000000000000000000081526004018080602001828103825260148152602001807f496e7465676572204f766572666c6f772042756700000000000000000000000081525060200191505060405180910390fd5b5b929150505600a165627a7a7230582077e2171d89f628941a54a3fc69aa74a49162bfc9ea8b08318795ffcde9678cda0029",
  "source": "pragma solidity ^0.4.24;\n\n/// @title Utilities Lib\n/// @author José Carlos Díaz Huélamo\nlibrary Utilities {\n\n    /// @notice Retrieve the result of a multiplication\n    /// @param firstNumber The first number.\n    /// @param secondNumber The second number.\n    /// @return The result.\n    function multiplication(uint firstNumber, uint secondNumber) public pure returns (uint result) {\n        if (firstNumber == 0) {\n            result = 0;\n        } else {\n            result = firstNumber * secondNumber;\n            // Save the Integer Overflow in Ethereum Smart Contracts\n            require(result / firstNumber == secondNumber, \"Integer Overflow Bug\");\n        }\n    }      \n}",
  "sourcePath": "/home/jcdiazhue/online-marketplace/contracts/Utilities.sol",
  "compiler": {
    "name": "solc",
    "version": "0.4.25+commit.59dbf8f1.Emscripten.clang"
  },
  "schemaVersion": "2.0.2",
  "updatedAt": "2019-01-25T17:52:53.956Z"
}